{
  "contractName": "TestAdoption",
  "abi": [
    {
      "constant": false,
      "inputs": [],
      "name": "testUserCanAdoptPet",
      "outputs": [],
      "payable": false,
      "stateMutability": "nonpayable",
      "type": "function"
    },
    {
      "constant": false,
      "inputs": [],
      "name": "testGetAdopterAddressByPetId",
      "outputs": [],
      "payable": false,
      "stateMutability": "nonpayable",
      "type": "function"
    },
    {
      "constant": false,
      "inputs": [],
      "name": "testGetAdopterAddressByPetIdInArray",
      "outputs": [],
      "payable": false,
      "stateMutability": "nonpayable",
      "type": "function"
    }
  ],
  "bytecode": "0x608060405273__DeployedAddresses_____________________6326c61b176040518163ffffffff1660e01b815260040160206040518083038186803b15801561004857600080fd5b505af415801561005c573d6000803e3d6000fd5b505050506040513d602081101561007257600080fd5b81019080805190602001909291905050506000806101000a81548173ffffffffffffffffffffffffffffffffffffffff021916908373ffffffffffffffffffffffffffffffffffffffff160217905550600860015530600260006101000a81548173ffffffffffffffffffffffffffffffffffffffff021916908373ffffffffffffffffffffffffffffffffffffffff16021790555034801561011457600080fd5b5061067d806101246000396000f3fe608060405234801561001057600080fd5b50600436106100415760003560e01c8063b8455ea514610046578063b8debfbf14610050578063e02a79281461005a575b600080fd5b61004e610064565b005b610058610173565b005b61006261026f565b005b61006c6105b9565b6000809054906101000a900473ffffffffffffffffffffffffffffffffffffffff1673ffffffffffffffffffffffffffffffffffffffff16633de4eb176040518163ffffffff1660e01b81526004016102006040518083038186803b1580156100d457600080fd5b505afa1580156100e8573d6000803e3d6000fd5b505050506040513d601f19601f8201168201806040525061020081101561010e57600080fd5b8101908091905050905061016f816001546010811061012957fe5b6020020151600260009054906101000a900473ffffffffffffffffffffffffffffffffffffffff166040518060600160405280603181526020016106186031913961034d565b5050565b60008060009054906101000a900473ffffffffffffffffffffffffffffffffffffffff1673ffffffffffffffffffffffffffffffffffffffff166343ae80d36001546040518263ffffffff1660e01b81526004018082815260200191505060206040518083038186803b1580156101e957600080fd5b505afa1580156101fd573d6000803e3d6000fd5b505050506040513d602081101561021357600080fd5b8101908080519060200190929190505050905061026b81600260009054906101000a900473ffffffffffffffffffffffffffffffffffffffff166040518060600160405280603181526020016106186031913961034d565b5050565b60008060009054906101000a900473ffffffffffffffffffffffffffffffffffffffff1673ffffffffffffffffffffffffffffffffffffffff16638588b2c56001546040518263ffffffff1660e01b815260040180828152602001915050602060405180830381600087803b1580156102e757600080fd5b505af11580156102fb573d6000803e3d6000fd5b505050506040513d602081101561031157600080fd5b81019080805190602001909291905050509050610349816001546040518060600160405280603b81526020016105dd603b91396104af565b5050565b600073__AssertAddress_________________________63bfba5dd68585856040518463ffffffff1660e01b8152600401808473ffffffffffffffffffffffffffffffffffffffff1673ffffffffffffffffffffffffffffffffffffffff1681526020018373ffffffffffffffffffffffffffffffffffffffff1673ffffffffffffffffffffffffffffffffffffffff16815260200180602001828103825283818151815260200191508051906020019080838360005b8381101561041f578082015181840152602081019050610404565b50505050905090810190601f16801561044c5780820380516001836020036101000a031916815260200191505b5094505050505060206040518083038186803b15801561046b57600080fd5b505af415801561047f573d6000803e3d6000fd5b505050506040513d602081101561049557600080fd5b810190808051906020019092919050505090509392505050565b600073__AssertUint____________________________63abcd79608585856040518463ffffffff1660e01b81526004018084815260200183815260200180602001828103825283818151815260200191508051906020019080838360005b8381101561052957808201518184015260208101905061050e565b50505050905090810190601f1680156105565780820380516001836020036101000a031916815260200191505b5094505050505060206040518083038186803b15801561057557600080fd5b505af4158015610589573d6000803e3d6000fd5b505050506040513d602081101561059f57600080fd5b810190808051906020019092919050505090509392505050565b60405180610200016040528060109060208202803883398082019150509050509056fe41646f7074696f6e206f6620746865206578706563746564207065742073686f756c64206d6174636820776861742069732072657475726e65642e4f776e6572206f6620746865206578706563746564207065742073686f756c64206265207468697320636f6e7472616374a265627a7a72315820e23bcb9f077f8dc280939a037c7b33703217a0055d569a66666ca82fc274d5ea64736f6c63430005100032",
  "deployedBytecode": "0x608060405234801561001057600080fd5b50600436106100415760003560e01c8063b8455ea514610046578063b8debfbf14610050578063e02a79281461005a575b600080fd5b61004e610064565b005b610058610173565b005b61006261026f565b005b61006c6105b9565b6000809054906101000a900473ffffffffffffffffffffffffffffffffffffffff1673ffffffffffffffffffffffffffffffffffffffff16633de4eb176040518163ffffffff1660e01b81526004016102006040518083038186803b1580156100d457600080fd5b505afa1580156100e8573d6000803e3d6000fd5b505050506040513d601f19601f8201168201806040525061020081101561010e57600080fd5b8101908091905050905061016f816001546010811061012957fe5b6020020151600260009054906101000a900473ffffffffffffffffffffffffffffffffffffffff166040518060600160405280603181526020016106186031913961034d565b5050565b60008060009054906101000a900473ffffffffffffffffffffffffffffffffffffffff1673ffffffffffffffffffffffffffffffffffffffff166343ae80d36001546040518263ffffffff1660e01b81526004018082815260200191505060206040518083038186803b1580156101e957600080fd5b505afa1580156101fd573d6000803e3d6000fd5b505050506040513d602081101561021357600080fd5b8101908080519060200190929190505050905061026b81600260009054906101000a900473ffffffffffffffffffffffffffffffffffffffff166040518060600160405280603181526020016106186031913961034d565b5050565b60008060009054906101000a900473ffffffffffffffffffffffffffffffffffffffff1673ffffffffffffffffffffffffffffffffffffffff16638588b2c56001546040518263ffffffff1660e01b815260040180828152602001915050602060405180830381600087803b1580156102e757600080fd5b505af11580156102fb573d6000803e3d6000fd5b505050506040513d602081101561031157600080fd5b81019080805190602001909291905050509050610349816001546040518060600160405280603b81526020016105dd603b91396104af565b5050565b600073__AssertAddress_________________________63bfba5dd68585856040518463ffffffff1660e01b8152600401808473ffffffffffffffffffffffffffffffffffffffff1673ffffffffffffffffffffffffffffffffffffffff1681526020018373ffffffffffffffffffffffffffffffffffffffff1673ffffffffffffffffffffffffffffffffffffffff16815260200180602001828103825283818151815260200191508051906020019080838360005b8381101561041f578082015181840152602081019050610404565b50505050905090810190601f16801561044c5780820380516001836020036101000a031916815260200191505b5094505050505060206040518083038186803b15801561046b57600080fd5b505af415801561047f573d6000803e3d6000fd5b505050506040513d602081101561049557600080fd5b810190808051906020019092919050505090509392505050565b600073__AssertUint____________________________63abcd79608585856040518463ffffffff1660e01b81526004018084815260200183815260200180602001828103825283818151815260200191508051906020019080838360005b8381101561052957808201518184015260208101905061050e565b50505050905090810190601f1680156105565780820380516001836020036101000a031916815260200191505b5094505050505060206040518083038186803b15801561057557600080fd5b505af4158015610589573d6000803e3d6000fd5b505050506040513d602081101561059f57600080fd5b810190808051906020019092919050505090509392505050565b60405180610200016040528060109060208202803883398082019150509050509056fe41646f7074696f6e206f6620746865206578706563746564207065742073686f756c64206d6174636820776861742069732072657475726e65642e4f776e6572206f6620746865206578706563746564207065742073686f756c64206265207468697320636f6e7472616374a265627a7a72315820e23bcb9f077f8dc280939a037c7b33703217a0055d569a66666ca82fc274d5ea64736f6c63430005100032",
  "source": "pragma solidity ^0.5.0;\r\n\r\nimport \"truffle/Assert.sol\";\r\nimport \"truffle/DeployedAddresses.sol\";\r\nimport \"../contracts/Adoption.sol\";\r\n\r\ncontract TestAdoption {\r\n  // The address of the adoption contract to be tested\r\n  Adoption adoption = Adoption(DeployedAddresses.Adoption());\r\n\r\n  // The id of the pet that will be used for testing\r\n  uint expectedPetId = 8;\r\n\r\n  //The expected owner of adopted pet is this contract\r\n  address expectedAdopter = address(this);\r\n\r\n  // Testing the adopt() function\r\n    function testUserCanAdoptPet() public {\r\n        uint returnedId = adoption.adopt(expectedPetId);\r\n\r\n        Assert.equal(returnedId, expectedPetId, \"Adoption of the expected pet should match what is returned.\");\r\n    }\r\n    function testGetAdopterAddressByPetId() public {\r\n        address adopter = adoption.adopters(expectedPetId);\r\n\r\n        Assert.equal(adopter, expectedAdopter, \"Owner of the expected pet should be this contract\");\r\n    }\r\n\r\n    // Testing retrieval of all pet owners\r\n    function testGetAdopterAddressByPetIdInArray() public {\r\n        // Store adopters in memory rather than contract's storage\r\n        address[16] memory adopters = adoption.getAdopters();\r\n\r\n        Assert.equal(adopters[expectedPetId], expectedAdopter, \"Owner of the expected pet should be this contract\");\r\n    }\r\n\r\n}\r\n",
  "sourcePath": "D:\\Projects\\ex-eth\\pet-shop-tutorial\\contracts\\TestAdoption.sol",
  "compiler": {
    "name": "solc",
    "version": "0.5.16+commit.9c3226ce.Emscripten.clang"
  },
  "schemaVersion": "3.4.16",
  "updatedAt": "2025-07-21T11:06:26.208Z",
  "devdoc": {
    "methods": {}
  },
  "userdoc": {
    "methods": {}
  }
}